{
  "address": "0x5FbDB2315678afecb367f032d93F642f64180aa3",
  "abi": [
    {
      "inputs": [],
      "stateMutability": "nonpayable",
      "type": "constructor"
    },
    {
      "inputs": [],
      "name": "Exchange_CanNotReleaseFunds",
      "type": "error"
    },
    {
      "inputs": [],
      "name": "Exchange_NotEnoughFunds",
      "type": "error"
    },
    {
      "inputs": [],
      "name": "Exchange_NotProvider",
      "type": "error"
    },
    {
      "inputs": [
        {
          "internalType": "string",
          "name": "_txtId",
          "type": "string"
        }
      ],
      "name": "buy",
      "outputs": [],
      "stateMutability": "payable",
      "type": "function"
    },
    {
      "inputs": [],
      "name": "getDecimal",
      "outputs": [
        {
          "internalType": "uint256",
          "name": "",
          "type": "uint256"
        }
      ],
      "stateMutability": "pure",
      "type": "function"
    },
    {
      "inputs": [],
      "name": "getProvider",
      "outputs": [
        {
          "internalType": "address",
          "name": "",
          "type": "address"
        }
      ],
      "stateMutability": "view",
      "type": "function"
    },
    {
      "inputs": [
        {
          "internalType": "string",
          "name": "_txtId",
          "type": "string"
        }
      ],
      "name": "getSeller",
      "outputs": [
        {
          "internalType": "address",
          "name": "",
          "type": "address"
        }
      ],
      "stateMutability": "view",
      "type": "function"
    },
    {
      "inputs": [
        {
          "internalType": "string",
          "name": "_txtId",
          "type": "string"
        }
      ],
      "name": "getStatus",
      "outputs": [
        {
          "internalType": "address",
          "name": "",
          "type": "address"
        },
        {
          "internalType": "string",
          "name": "",
          "type": "string"
        },
        {
          "internalType": "address",
          "name": "",
          "type": "address"
        },
        {
          "internalType": "uint256",
          "name": "",
          "type": "uint256"
        }
      ],
      "stateMutability": "view",
      "type": "function"
    },
    {
      "inputs": [
        {
          "internalType": "string",
          "name": "_txtId",
          "type": "string"
        }
      ],
      "name": "releaseFund",
      "outputs": [],
      "stateMutability": "payable",
      "type": "function"
    },
    {
      "inputs": [
        {
          "internalType": "string",
          "name": "_txtId",
          "type": "string"
        },
        {
          "internalType": "uint256",
          "name": "_price",
          "type": "uint256"
        }
      ],
      "name": "sell",
      "outputs": [],
      "stateMutability": "nonpayable",
      "type": "function"
    }
  ],
  "transactionHash": "0x835bf905524cb2014d4cd79e07b03eae6c56a1afca1b2d07d4321e9ce583d82e",
  "args": [],
  "numDeployments": 1,
  "solcInputHash": "7321264c2e2e84ef6be69a586124e07b",
  "bytecode": "0x60a060405234801561001057600080fd5b503373ffffffffffffffffffffffffffffffffffffffff1660808173ffffffffffffffffffffffffffffffffffffffff1660601b8152505060805160601c610f1c61006d6000396000818161033001526106310152610f1c6000f3fe6080604052600436106100705760003560e01c8063492cc7691161004e578063492cc7691461010b5780639f65632114610127578063a390294014610150578063d93475cd1461018d57610070565b806322b05ed21461007557806334ce10c4146100b5578063483d45bd146100e0575b600080fd5b34801561008157600080fd5b5061009c60048036038101906100979190610a9a565b6101a9565b6040516100ac9493929190610bc5565b60405180910390f35b3480156100c157600080fd5b506100ca610323565b6040516100d79190610c11565b60405180910390f35b3480156100ec57600080fd5b506100f561032c565b6040516101029190610c2c565b60405180910390f35b61012560048036038101906101209190610a9a565b610354565b005b34801561013357600080fd5b5061014e60048036038101906101499190610c73565b61047c565b005b34801561015c57600080fd5b5061017760048036038101906101729190610a9a565b6105df565b6040516101849190610c2c565b60405180910390f35b6101a760048036038101906101a29190610a9a565b61062f565b005b60006060600080600080866040516101c19190610d0b565b908152602001604051809103902060000160009054906101000a900473ffffffffffffffffffffffffffffffffffffffff169050600080876040516102069190610d0b565b9081526020016040518091039020600101805461022290610d51565b80601f016020809104026020016040519081016040528092919081815260200182805461024e90610d51565b801561029b5780601f106102705761010080835404028352916020019161029b565b820191906000526020600020905b81548152906001019060200180831161027e57829003601f168201915b50505050509050600080886040516102b39190610d0b565b908152602001604051809103902060020160009054906101000a900473ffffffffffffffffffffffffffffffffffffffff169050600080896040516102f89190610d0b565b9081526020016040518091039020600301549050838383839750975097509750505050509193509193565b60006012905090565b60007f0000000000000000000000000000000000000000000000000000000000000000905090565b6000816040516103649190610d0b565b90815260200160405180910390206003015434146103ae576040517fc010aae600000000000000000000000000000000000000000000000000000000815260040160405180910390fd5b336000826040516103bf9190610d0b565b908152602001604051809103902060020160006101000a81548173ffffffffffffffffffffffffffffffffffffffff021916908373ffffffffffffffffffffffffffffffffffffffff1602179055506040518060400160405280600781526020017f70656e64696e67000000000000000000000000000000000000000000000000008152506000826040516104549190610d0b565b9081526020016040518091039020600101908051906020019061047892919061089d565b5050565b600060405180608001604052803373ffffffffffffffffffffffffffffffffffffffff1681526020016040518060400160405280600781526020017f6e6f74536f6c64000000000000000000000000000000000000000000000000008152508152602001600073ffffffffffffffffffffffffffffffffffffffff168152602001838152509050806000846040516105149190610d0b565b908152602001604051809103902060008201518160000160006101000a81548173ffffffffffffffffffffffffffffffffffffffff021916908373ffffffffffffffffffffffffffffffffffffffff160217905550602082015181600101908051906020019061058592919061089d565b5060408201518160020160006101000a81548173ffffffffffffffffffffffffffffffffffffffff021916908373ffffffffffffffffffffffffffffffffffffffff16021790555060608201518160030155905050505050565b6000806000836040516105f29190610d0b565b908152602001604051809103902060000160009054906101000a900473ffffffffffffffffffffffffffffffffffffffff16905080915050919050565b7f000000000000000000000000000000000000000000000000000000000000000073ffffffffffffffffffffffffffffffffffffffff163373ffffffffffffffffffffffffffffffffffffffff16146106b4576040517f4adb947100000000000000000000000000000000000000000000000000000000815260040160405180910390fd5b60006106e06000836040516106c99190610d0b565b90815260200160405180910390206003015461086d565b9050600080836040516106f39190610d0b565b908152602001604051809103902060000160009054906101000a900473ffffffffffffffffffffffffffffffffffffffff16905060008260008560405161073a9190610d0b565b9081526020016040518091039020600301546107569190610db2565b90506040518060400160405280600481526020017f736f6c640000000000000000000000000000000000000000000000000000000081525060008560405161079e9190610d0b565b908152602001604051809103902060010190805190602001906107c292919061089d565b5060008273ffffffffffffffffffffffffffffffffffffffff16826040516107e990610e17565b60006040518083038185875af1925050503d8060008114610826576040519150601f19603f3d011682016040523d82523d6000602084013e61082b565b606091505b5050905080610866576040517fbf9681dd00000000000000000000000000000000000000000000000000000000815260040160405180910390fd5b5050505050565b6000670de0b6b3a764000067016345785d8a00008361088c9190610e2c565b6108969190610eb5565b9050919050565b8280546108a990610d51565b90600052602060002090601f0160209004810192826108cb5760008555610912565b82601f106108e457805160ff1916838001178555610912565b82800160010185558215610912579182015b828111156109115782518255916020019190600101906108f6565b5b50905061091f9190610923565b5090565b5b8082111561093c576000816000905550600101610924565b5090565b6000604051905090565b600080fd5b600080fd5b600080fd5b600080fd5b6000601f19601f8301169050919050565b7f4e487b7100000000000000000000000000000000000000000000000000000000600052604160045260246000fd5b6109a78261095e565b810181811067ffffffffffffffff821117156109c6576109c561096f565b5b80604052505050565b60006109d9610940565b90506109e5828261099e565b919050565b600067ffffffffffffffff821115610a0557610a0461096f565b5b610a0e8261095e565b9050602081019050919050565b82818337600083830152505050565b6000610a3d610a38846109ea565b6109cf565b905082815260208101848484011115610a5957610a58610959565b5b610a64848285610a1b565b509392505050565b600082601f830112610a8157610a80610954565b5b8135610a91848260208601610a2a565b91505092915050565b600060208284031215610ab057610aaf61094a565b5b600082013567ffffffffffffffff811115610ace57610acd61094f565b5b610ada84828501610a6c565b91505092915050565b600073ffffffffffffffffffffffffffffffffffffffff82169050919050565b6000610b0e82610ae3565b9050919050565b610b1e81610b03565b82525050565b600081519050919050565b600082825260208201905092915050565b60005b83811015610b5e578082015181840152602081019050610b43565b83811115610b6d576000848401525b50505050565b6000610b7e82610b24565b610b888185610b2f565b9350610b98818560208601610b40565b610ba18161095e565b840191505092915050565b6000819050919050565b610bbf81610bac565b82525050565b6000608082019050610bda6000830187610b15565b8181036020830152610bec8186610b73565b9050610bfb6040830185610b15565b610c086060830184610bb6565b95945050505050565b6000602082019050610c266000830184610bb6565b92915050565b6000602082019050610c416000830184610b15565b92915050565b610c5081610bac565b8114610c5b57600080fd5b50565b600081359050610c6d81610c47565b92915050565b60008060408385031215610c8a57610c8961094a565b5b600083013567ffffffffffffffff811115610ca857610ca761094f565b5b610cb485828601610a6c565b9250506020610cc585828601610c5e565b9150509250929050565b600081905092915050565b6000610ce582610b24565b610cef8185610ccf565b9350610cff818560208601610b40565b80840191505092915050565b6000610d178284610cda565b915081905092915050565b7f4e487b7100000000000000000000000000000000000000000000000000000000600052602260045260246000fd5b60006002820490506001821680610d6957607f821691505b60208210811415610d7d57610d7c610d22565b5b50919050565b7f4e487b7100000000000000000000000000000000000000000000000000000000600052601160045260246000fd5b6000610dbd82610bac565b9150610dc883610bac565b925082821015610ddb57610dda610d83565b5b828203905092915050565b600081905092915050565b50565b6000610e01600083610de6565b9150610e0c82610df1565b600082019050919050565b6000610e2282610df4565b9150819050919050565b6000610e3782610bac565b9150610e4283610bac565b9250817fffffffffffffffffffffffffffffffffffffffffffffffffffffffffffffffff0483118215151615610e7b57610e7a610d83565b5b828202905092915050565b7f4e487b7100000000000000000000000000000000000000000000000000000000600052601260045260246000fd5b6000610ec082610bac565b9150610ecb83610bac565b925082610edb57610eda610e86565b5b82820490509291505056fea26469706673582212207ded1204b4296c9e9019d333ec220178038189ebdf12e2e3dc2298332e5c1b5f64736f6c63430008080033",
  "devdoc": {
    "kind": "dev",
    "methods": {},
    "version": 1
  },
  "userdoc": {
    "kind": "user",
    "methods": {},
    "version": 1
  },
  "storageLayout": {
    "storage": [
      {
        "astId": 31,
        "contract": "contracts/Exchange.sol:Exchange",
        "label": "s_storage",
        "offset": 0,
        "slot": "0",
        "type": "t_mapping(t_string_memory_ptr,t_struct(Metadata)26_storage)"
      }
    ],
    "types": {
      "t_address": {
        "encoding": "inplace",
        "label": "address",
        "numberOfBytes": "20"
      },
      "t_mapping(t_string_memory_ptr,t_struct(Metadata)26_storage)": {
        "encoding": "mapping",
        "key": "t_string_memory_ptr",
        "label": "mapping(string => struct Exchange.Metadata)",
        "numberOfBytes": "32",
        "value": "t_struct(Metadata)26_storage"
      },
      "t_string_memory_ptr": {
        "encoding": "bytes",
        "label": "string",
        "numberOfBytes": "32"
      },
      "t_string_storage": {
        "encoding": "bytes",
        "label": "string",
        "numberOfBytes": "32"
      },
      "t_struct(Metadata)26_storage": {
        "encoding": "inplace",
        "label": "struct Exchange.Metadata",
        "members": [
          {
            "astId": 19,
            "contract": "contracts/Exchange.sol:Exchange",
            "label": "seller",
            "offset": 0,
            "slot": "0",
            "type": "t_address"
          },
          {
            "astId": 21,
            "contract": "contracts/Exchange.sol:Exchange",
            "label": "transactionState",
            "offset": 0,
            "slot": "1",
            "type": "t_string_storage"
          },
          {
            "astId": 23,
            "contract": "contracts/Exchange.sol:Exchange",
            "label": "buyer",
            "offset": 0,
            "slot": "2",
            "type": "t_address"
          },
          {
            "astId": 25,
            "contract": "contracts/Exchange.sol:Exchange",
            "label": "price",
            "offset": 0,
            "slot": "3",
            "type": "t_uint256"
          }
        ],
        "numberOfBytes": "128"
      },
      "t_uint256": {
        "encoding": "inplace",
        "label": "uint256",
        "numberOfBytes": "32"
      }
    }
  }
}