{
  "address": "0x5FbDB2315678afecb367f032d93F642f64180aa3",
  "abi": [
    {
      "inputs": [],
      "stateMutability": "nonpayable",
      "type": "constructor"
    },
    {
      "inputs": [],
      "name": "Exchange_CanNotReleaseFunds",
      "type": "error"
    },
    {
      "inputs": [],
      "name": "Exchange_NotEnoughFunds",
      "type": "error"
    },
    {
      "inputs": [],
      "name": "Exchange_NotProvider",
      "type": "error"
    },
    {
      "inputs": [
        {
          "internalType": "string",
          "name": "_txtId",
          "type": "string"
        }
      ],
      "name": "buy",
      "outputs": [],
      "stateMutability": "payable",
      "type": "function"
    },
    {
      "inputs": [],
      "name": "getDecimal",
      "outputs": [
        {
          "internalType": "uint256",
          "name": "",
          "type": "uint256"
        }
      ],
      "stateMutability": "pure",
      "type": "function"
    },
    {
      "inputs": [],
      "name": "getProvider",
      "outputs": [
        {
          "internalType": "address",
          "name": "",
          "type": "address"
        }
      ],
      "stateMutability": "view",
      "type": "function"
    },
    {
      "inputs": [
        {
          "internalType": "string",
          "name": "_txtId",
          "type": "string"
        }
      ],
      "name": "getStatus",
      "outputs": [
        {
          "internalType": "address",
          "name": "",
          "type": "address"
        },
        {
          "internalType": "string",
          "name": "",
          "type": "string"
        },
        {
          "internalType": "address",
          "name": "",
          "type": "address"
        },
        {
          "internalType": "uint256",
          "name": "",
          "type": "uint256"
        }
      ],
      "stateMutability": "view",
      "type": "function"
    },
    {
      "inputs": [
        {
          "internalType": "string",
          "name": "_txtId",
          "type": "string"
        }
      ],
      "name": "releaseFund",
      "outputs": [],
      "stateMutability": "payable",
      "type": "function"
    },
    {
      "inputs": [
        {
          "internalType": "string",
          "name": "_txtId",
          "type": "string"
        },
        {
          "internalType": "uint256",
          "name": "_price",
          "type": "uint256"
        }
      ],
      "name": "sell",
      "outputs": [],
      "stateMutability": "nonpayable",
      "type": "function"
    }
  ],
  "transactionHash": "0x51ec8749a27286b424cb6df51704b4f7ddfcd4e0317090153fd6dbc03c73ec74",
  "args": [],
  "numDeployments": 1,
  "solcInputHash": "9f75e51b93190410f47e5fca098602f9",
  "bytecode": "0x60a060405234801561001057600080fd5b503373ffffffffffffffffffffffffffffffffffffffff1660808173ffffffffffffffffffffffffffffffffffffffff1660601b8152505060805160601c610e7461006d600039600081816102d801526105890152610e746000f3fe6080604052600436106100555760003560e01c806322b05ed21461005a57806334ce10c41461009a578063483d45bd146100c5578063492cc769146100f05780639f6563211461010c578063d93475cd14610135575b600080fd5b34801561006657600080fd5b50610081600480360381019061007c91906109f2565b610151565b6040516100919493929190610b1d565b60405180910390f35b3480156100a657600080fd5b506100af6102cb565b6040516100bc9190610b69565b60405180910390f35b3480156100d157600080fd5b506100da6102d4565b6040516100e79190610b84565b60405180910390f35b61010a600480360381019061010591906109f2565b6102fc565b005b34801561011857600080fd5b50610133600480360381019061012e9190610bcb565b610424565b005b61014f600480360381019061014a91906109f2565b610587565b005b60006060600080600080866040516101699190610c63565b908152602001604051809103902060000160009054906101000a900473ffffffffffffffffffffffffffffffffffffffff169050600080876040516101ae9190610c63565b908152602001604051809103902060010180546101ca90610ca9565b80601f01602080910402602001604051908101604052809291908181526020018280546101f690610ca9565b80156102435780601f1061021857610100808354040283529160200191610243565b820191906000526020600020905b81548152906001019060200180831161022657829003601f168201915b505050505090506000808860405161025b9190610c63565b908152602001604051809103902060020160009054906101000a900473ffffffffffffffffffffffffffffffffffffffff169050600080896040516102a09190610c63565b9081526020016040518091039020600301549050838383839750975097509750505050509193509193565b60006012905090565b60007f0000000000000000000000000000000000000000000000000000000000000000905090565b60008160405161030c9190610c63565b9081526020016040518091039020600301543414610356576040517fc010aae600000000000000000000000000000000000000000000000000000000815260040160405180910390fd5b336000826040516103679190610c63565b908152602001604051809103902060020160006101000a81548173ffffffffffffffffffffffffffffffffffffffff021916908373ffffffffffffffffffffffffffffffffffffffff1602179055506040518060400160405280600781526020017f70656e64696e67000000000000000000000000000000000000000000000000008152506000826040516103fc9190610c63565b908152602001604051809103902060010190805190602001906104209291906107f5565b5050565b600060405180608001604052803373ffffffffffffffffffffffffffffffffffffffff1681526020016040518060400160405280600781526020017f6e6f74536f6c64000000000000000000000000000000000000000000000000008152508152602001600073ffffffffffffffffffffffffffffffffffffffff168152602001838152509050806000846040516104bc9190610c63565b908152602001604051809103902060008201518160000160006101000a81548173ffffffffffffffffffffffffffffffffffffffff021916908373ffffffffffffffffffffffffffffffffffffffff160217905550602082015181600101908051906020019061052d9291906107f5565b5060408201518160020160006101000a81548173ffffffffffffffffffffffffffffffffffffffff021916908373ffffffffffffffffffffffffffffffffffffffff16021790555060608201518160030155905050505050565b7f000000000000000000000000000000000000000000000000000000000000000073ffffffffffffffffffffffffffffffffffffffff163373ffffffffffffffffffffffffffffffffffffffff161461060c576040517f4adb947100000000000000000000000000000000000000000000000000000000815260040160405180910390fd5b60006106386000836040516106219190610c63565b9081526020016040518091039020600301546107c5565b90506000808360405161064b9190610c63565b908152602001604051809103902060000160009054906101000a900473ffffffffffffffffffffffffffffffffffffffff1690506000826000856040516106929190610c63565b9081526020016040518091039020600301546106ae9190610d0a565b90506040518060400160405280600481526020017f736f6c64000000000000000000000000000000000000000000000000000000008152506000856040516106f69190610c63565b9081526020016040518091039020600101908051906020019061071a9291906107f5565b5060008273ffffffffffffffffffffffffffffffffffffffff168260405161074190610d6f565b60006040518083038185875af1925050503d806000811461077e576040519150601f19603f3d011682016040523d82523d6000602084013e610783565b606091505b50509050806107be576040517fbf9681dd00000000000000000000000000000000000000000000000000000000815260040160405180910390fd5b5050505050565b6000670de0b6b3a764000067016345785d8a0000836107e49190610d84565b6107ee9190610e0d565b9050919050565b82805461080190610ca9565b90600052602060002090601f016020900481019282610823576000855561086a565b82601f1061083c57805160ff191683800117855561086a565b8280016001018555821561086a579182015b8281111561086957825182559160200191906001019061084e565b5b509050610877919061087b565b5090565b5b8082111561089457600081600090555060010161087c565b5090565b6000604051905090565b600080fd5b600080fd5b600080fd5b600080fd5b6000601f19601f8301169050919050565b7f4e487b7100000000000000000000000000000000000000000000000000000000600052604160045260246000fd5b6108ff826108b6565b810181811067ffffffffffffffff8211171561091e5761091d6108c7565b5b80604052505050565b6000610931610898565b905061093d82826108f6565b919050565b600067ffffffffffffffff82111561095d5761095c6108c7565b5b610966826108b6565b9050602081019050919050565b82818337600083830152505050565b600061099561099084610942565b610927565b9050828152602081018484840111156109b1576109b06108b1565b5b6109bc848285610973565b509392505050565b600082601f8301126109d9576109d86108ac565b5b81356109e9848260208601610982565b91505092915050565b600060208284031215610a0857610a076108a2565b5b600082013567ffffffffffffffff811115610a2657610a256108a7565b5b610a32848285016109c4565b91505092915050565b600073ffffffffffffffffffffffffffffffffffffffff82169050919050565b6000610a6682610a3b565b9050919050565b610a7681610a5b565b82525050565b600081519050919050565b600082825260208201905092915050565b60005b83811015610ab6578082015181840152602081019050610a9b565b83811115610ac5576000848401525b50505050565b6000610ad682610a7c565b610ae08185610a87565b9350610af0818560208601610a98565b610af9816108b6565b840191505092915050565b6000819050919050565b610b1781610b04565b82525050565b6000608082019050610b326000830187610a6d565b8181036020830152610b448186610acb565b9050610b536040830185610a6d565b610b606060830184610b0e565b95945050505050565b6000602082019050610b7e6000830184610b0e565b92915050565b6000602082019050610b996000830184610a6d565b92915050565b610ba881610b04565b8114610bb357600080fd5b50565b600081359050610bc581610b9f565b92915050565b60008060408385031215610be257610be16108a2565b5b600083013567ffffffffffffffff811115610c0057610bff6108a7565b5b610c0c858286016109c4565b9250506020610c1d85828601610bb6565b9150509250929050565b600081905092915050565b6000610c3d82610a7c565b610c478185610c27565b9350610c57818560208601610a98565b80840191505092915050565b6000610c6f8284610c32565b915081905092915050565b7f4e487b7100000000000000000000000000000000000000000000000000000000600052602260045260246000fd5b60006002820490506001821680610cc157607f821691505b60208210811415610cd557610cd4610c7a565b5b50919050565b7f4e487b7100000000000000000000000000000000000000000000000000000000600052601160045260246000fd5b6000610d1582610b04565b9150610d2083610b04565b925082821015610d3357610d32610cdb565b5b828203905092915050565b600081905092915050565b50565b6000610d59600083610d3e565b9150610d6482610d49565b600082019050919050565b6000610d7a82610d4c565b9150819050919050565b6000610d8f82610b04565b9150610d9a83610b04565b9250817fffffffffffffffffffffffffffffffffffffffffffffffffffffffffffffffff0483118215151615610dd357610dd2610cdb565b5b828202905092915050565b7f4e487b7100000000000000000000000000000000000000000000000000000000600052601260045260246000fd5b6000610e1882610b04565b9150610e2383610b04565b925082610e3357610e32610dde565b5b82820490509291505056fea2646970667358221220c20c0f36b1e209cdc6ee02a7c6251ec12d1c5444056c2143ffcd6a6d9cb1cbe364736f6c63430008080033",
  "devdoc": {
    "kind": "dev",
    "methods": {},
    "version": 1
  },
  "userdoc": {
    "kind": "user",
    "methods": {},
    "version": 1
  },
  "storageLayout": {
    "storage": [
      {
        "astId": 31,
        "contract": "contracts/Exchange.sol:Exchange",
        "label": "s_storage",
        "offset": 0,
        "slot": "0",
        "type": "t_mapping(t_string_memory_ptr,t_struct(Metadata)26_storage)"
      }
    ],
    "types": {
      "t_address": {
        "encoding": "inplace",
        "label": "address",
        "numberOfBytes": "20"
      },
      "t_mapping(t_string_memory_ptr,t_struct(Metadata)26_storage)": {
        "encoding": "mapping",
        "key": "t_string_memory_ptr",
        "label": "mapping(string => struct Exchange.Metadata)",
        "numberOfBytes": "32",
        "value": "t_struct(Metadata)26_storage"
      },
      "t_string_memory_ptr": {
        "encoding": "bytes",
        "label": "string",
        "numberOfBytes": "32"
      },
      "t_string_storage": {
        "encoding": "bytes",
        "label": "string",
        "numberOfBytes": "32"
      },
      "t_struct(Metadata)26_storage": {
        "encoding": "inplace",
        "label": "struct Exchange.Metadata",
        "members": [
          {
            "astId": 19,
            "contract": "contracts/Exchange.sol:Exchange",
            "label": "seller",
            "offset": 0,
            "slot": "0",
            "type": "t_address"
          },
          {
            "astId": 21,
            "contract": "contracts/Exchange.sol:Exchange",
            "label": "transactionState",
            "offset": 0,
            "slot": "1",
            "type": "t_string_storage"
          },
          {
            "astId": 23,
            "contract": "contracts/Exchange.sol:Exchange",
            "label": "buyer",
            "offset": 0,
            "slot": "2",
            "type": "t_address"
          },
          {
            "astId": 25,
            "contract": "contracts/Exchange.sol:Exchange",
            "label": "price",
            "offset": 0,
            "slot": "3",
            "type": "t_uint256"
          }
        ],
        "numberOfBytes": "128"
      },
      "t_uint256": {
        "encoding": "inplace",
        "label": "uint256",
        "numberOfBytes": "32"
      }
    }
  }
}